:1000000012C02CC02BC02AC029C028C027C026C0BF
:1000100025C024C023C022C021C020C01FC01EC0D4
:100020001DC01CC01BC011241FBECFE5D4E0DEBF25
:10003000CDBF10E0A0E6B0E0EEEDF3E002C0059029
:100040000D92A636B107D9F720E0A6E6B0E001C0D0
:100050001D92AA36B207E1F702D0BFC1D1CF27D097
:1000600037D038D0EC018A819B818C3291402CF0C2
:100070008C819D818C3291401CF41ED023D002C013
:100080001ED023D0CE01F2D0ECCF009751F40895CA
:1000900021503109E9F74F5F5F4F4817590729F49D
:1000A000089540E050E068EE73E09B01F1CF8B9A39
:1000B0008A9A8C9A8D9A0895939A92980895939813
:1000C000929808959498959A08959498959808957B
:1000D0008F9A0895979A81E090E0D7DF979886E00D
:1000E00090E029D0E82FF92F11821082138212821A
:1000F00015821482B09BFECF15C0B09B05C08081D5
:100100009181019691838083B29B05C08281938106
:10011000019693838283B19B05C08481958101966A
:1001200095838483B099E9CFB299E7CFB199E5CFB0
:100130008E2F9F2F08950F931F93CF93DF938230BD
:10014000910510F482E090E0E0916800F091690080
:1001500020E030E0C0E0D0E023C04081518148176A
:100160005907A8F04817590761F4828193812097B5
:1001700019F09B838A832EC0909369008093680056
:1001800029C02115310529F04217530710F0A901A4
:1001900002C0BE01DF0102811381EF019A01F80163
:1001A0003097D9F62115310509F1281B390B243078
:1001B000310590F412968D919C91139761157105FC
:1001C00021F0FB019383828304C0909369008093A4
:1001D0006800FD01329644C0FD01E20FF31F8193D8
:1001E0009193225031092D933C933AC0209166009F
:1001F00030916700232B41F420916200309163001D
:100200003093670020936600209160003091610078
:100210002115310541F42DB73EB74091640050914E
:100220006500241B350BE0916600F0916700E21732
:10023000F307A0F42E1B3F0B2817390778F0AC0109
:100240004E5F5F4F2417350748F04E0F5F1F5093E6
:100250006700409366008193919302C0E0E0F0E074
:10026000CF01DF91CF911F910F910895EF92FF92EF
:100270000F931F93CF93DF93009709F48FC0DC0196
:10028000129713961C921E921297E0906800F090BD
:100290006900E114F10489F42D913C911197280F24
:1002A000391F80916600909167008217930789F546
:1002B000B0936700A093660071C0E70120E030E0D2
:1002C00001C0EA01CA17DB0738F44A815B819E014D
:1002D00041155105B1F722C0BC0162507109FB0103
:1002E000D383C28300811181AC01400F511F4C1791
:1002F0005D0761F448815981400F511F4E5F5F4F88
:10030000518340834A815B815383428321153105A8
:1003100029F4B0936900A093680040C0F901B38349
:10032000A283E90169917991C60FD71FAC17BD0768
:1003300079F4DC015E914E91460F571F4E5F5F4F7F
:100340005183408312968D919C911397938382835E
:10035000A0E0B0E002C0D7017C01F7018281938167
:100360000097C9F7C701029620813181820F931F40
:1003700020916600309167002817390779F41097AB
:1003800029F4109269001092680004C013961C9220
:100390001E921297F0926700E0926600CDB7DEB72A
:1003A000E6E00CC02A88398848885F846E847D84A2
:1003B0008C849B84AA84B984C884DF80EE80FD800D
:1003C0000C811B81AA81B981CE0FD11D0FB6F89483
:0E03D000DEBF0FBECDBFED010895F894FFCF44
:0603DE0000006A0020008F
:00000001FF
